S01D000049746572617469766550696E67506F6E67726576322E73726563B9
S11300000C945A000C9477000C9477000C941D0106
S11300100C9474010C9477000C9477000C94770082
S11300200C9477000C9477000C9477000C94770070
S11300300C9477000C9477000C9477000C94770060
S11300400C9477000C9477000C9477000C94770050
S11300500C9477000C9477000C9477000C94770040
S11300600C9477000C9477000C9477000C94770030
S11300700C9477000C9477000C9477000C94770020
S11300800C9477000C9477000C9477000C94770010
S11300900C9477000C9477000C9477000C94770000
S11300A00C9477000C9477000C9477000C947700F0
S11300B00C94770011241FBECFEFD8E0DEBFCDBF74
S11300C011E0A0E0B1E0E0EDFFE002C005900D9288
S11300D0AA32B107D9F721E0AAE2B1E001C01D922A
S11300E0A836B207E1F70E9440020C94E6070C948C
S11300F000009BB19F70282F207F922B9BB94098C2
S11301004198429A35E03A95F1F700004298EFE8B9
S1130110F1E03197F1F700C000002BB12F70F0E14E
S11301208F9FC0011124822B8BB9429A35E03A95F6
S1130130F1F7000042988FE891E00197F1F700C0D1
S1130140000008959BB19F70282F207F922B9BB9AC
S1130150409A4198429A35E03A95F1F70000429866
S11301602BB12F7030E1839FC0011124822B8BB9F6
S1130170429A85E08A95F1F7000042988FE891E071
S11301800197F1F700C0000008958FEF8AB987B195
S1130190876087B9429883E30E94790082E30E94D2
S11301A0790088E20E9479008EE00E94790081E063
S11301B00E9479008FE39FE10197F1F700C00000EE
S11301C086E00E9479000895CF93DF9300D000D099
S11301D0CDB7DEB790E8998390EC9A8394E99B833A
S11301E094ED9C83FE01E60FF11D81509081890FEF
S11301F00E9479008FE891E00197F1F700C00000B8
S11302000F900F900F900F90DF91CF9108950F935F
S11302101F93CF93FC018081882359F08F01C0E0A4
S11302200E94A200CF5FF801EC0FF11D80818111C3
S1130230F7CFCF911F910F9108951F920F920FB690
S11302400F9211244F935F936F937F938F939F9398
S1130250AF93BF931A993BC018991DC08091360182
S113026090913701A0913801B0913901409100017A
S1130270509101016091020170910301841B950B5F
S1130280A60BB70B8093360190933701A0933801E6
S1130290B09339011CC040913601509137016091EF
S11302A03801709139018091000190910101A09170
S11302B00201B0910301840F951FA61FB71F8093FD
S11302C0360190933701A0933801B0933901BF915F
S11302D0AF919F918F917F916F915F914F910F900B
S11302E00FBE0F901F9018951F920F920FB60F928A
S11302F011248F939F93AF93BF93EF93FF933399FD
S113030072C081E090E0A0E0B0E080932E01909371
S11303102F01A0933001B09331018091000190919D
S11303200101A0910201B09103010197A105B1055A
S1130330C9F482E090E0A0E0B0E0809300019093E3
S11303400101A0930201B093030181E39FE2909322
S11303502B0180932A0184E390E090932D018093F4
S11303602C0149C08091000190910101A0910201EA
S1130370B09103010297A105B105B1F483E090E0C7
S1130380A0E0B0E08093000190930101A0930201EA
S1130390B093030185E0E8E0F1E0AAE2B1E0019066
S11303A00D928A95E1F727C0809100019091010197
S11303B0A0910201B09103010397A105B105D9F4FD
S11303C081E090E0A0E0B0E080930001909301010F
S11303D0A0930201B093030181E390E090932B0179
S11303E080932A0108C010922E0110922F011092BE
S11303F0300110923101FF91EF91BF91AF919F9124
S11304008F910F900FBE0F901F901895CF93DF938D
S113041000D000D0CDB7DEB769837A838B839C8309
S113042089819A81AB81BC81BB2334F480ED97E050
S1130430909389008093880089819A81AB81BC81E3
S1130440181619061A061B0634F488EB9BE09093E1
S113045089008093880089819A81AB81BC81892B32
S11304608A2B8B2B31F484EC99E090938900809350
S113047088000F900F900F900F90DF91CF91089507
S1130480CF93DF9300D000D0CDB7DEB780E287B939
S1130490219A14B814B8219AE8E6F0E080818160CA
S11304A08083ABE6B0E08C9181608C938C918C93CB
S11304B0808182608083ECE6F0E0808188608083C4
S11304C01092900084E0809391001092710082E871
S11304D0809380008AE18093810080E49CE990937A
S11304E087008093860088EE93E090938900809340
S11304F0880078940F2EFDE0AF2EF1E0BF2EF02D92
S11305000F2EFEE4CF2EF1E0DF2EF02D0F2EFDE1B5
S11305108F2EF1E09F2EF02D0F2EFAE3EF2EF1E057
S1130520FF2EF02D6894332435F80F2EFFE06F2E44
S1130530F7E27F2EF02D8091360190913701A09142
S11305403801B0913901BF93AF939F938F93BF92BA
S1130550AF92DF92CF920E94FC04809167018F9347
S1130560809166018F939F928F92FF92EF920E94E7
S1130570FC040E94C50061E081E00E94E400C60121
S11305800E94070162E081E00E94E400C7010E942A
S113059007018AE291E00E940701409136015091DF
S11305A03701609138017091390180916601909111
S11305B06701A0E0B0E0841B950BA60BB70B8093FA
S11305C0320190933301A0933401B09335016091CB
S11305D032017091330180913401909135010E9470
S11305E0060238B825E32A95F1F7000018B886B159
S11305F0807190E00FB6F894DEBF0FBECDBF409778
S113060034F086B1807190E040975CF413C0E4E963
S1130610F0E01182108286B1807190E04097BCF3C3
S1130620F0CFE4E9F0E00081118186B1807190E0BF
S11306304097BCF70734F9E01F0728F07092670170
S11306406092660133C020E034E244E757E46091ED
S113065004017091050180910601909107010E94A7
S1130660600369837A838B839C83B80180E090E084
S11306700E9401049B01AC0169817A818B819C8178
S11306800E948F0420E030E040E05FE30E948F048A
S11306906093620170936301809364019093650198
S11306A00E94D20370936701609366012FEF39EFC4
S11306B080E0215030408040E1F700C000003BCF93
S11306C00E9474030C9455040E944E0458F00E9436
S11306D0470440F029F45F3F29F00C943E04511183
S11306E00C9489040C9444040E94660468F39923CE
S11306F0B1F3552391F3951B550BBB27AA2762171A
S11307007307840738F09F5F5F4F220F331F441F26
S1130710AA1FA9F335D00E2E3AF0E0E832D091505A
S11307205040E695001CCAF72BD0FE2F29D0660F47
S1130730771F881FBB1F261737074807AB07B0E88A
S113074009F0BB0B802DBF01FF2793585F4F3AF090
S11307509E3F510578F00C943E040C9489045F3F4D
S1130760E4F3983ED4F3869577956795B795F79516
S11307709F5FC9F7880F911D9695879597F90895FE
S1130780E1E0660F771F881FBB1F6217730784079A
S1130790BA0720F0621B730B840BBA0BEE1F88F7A9
S11307A0E09508950E946E0488F09F5798F0B92F41
S11307B09927B751B0F0E1F0660F771F881F991F92
S11307C01AF0BA95C9F714C0B13091F00E948804A8
S11307D0B1E008950C948804672F782F8827B85FB8
S11307E039F0B93FCCF3869577956795B395D9F7EA
S11307F03EF490958095709561957F4F8F4F9F4FF4
S11308000895E89409C097FB3EF4909580957095FF
S113081061957F4F8F4F9F4F9923A9F0F92F96E948
S1130820BB279395F695879577956795B795F111BD
S1130830F8CFFAF4BB0F11F460FF1BC06F5F7F4F5A
S11308408F4F9F4F16C0882311F096E911C077236C
S113085021F09EE8872F762F05C0662371F096E875
S1130860862F70E060E02AF09A95660F771F881F44
S1130870DAF7880F9695879597F9089597F99F6702
S113088080E870E060E008959FEF80EC0895002414
S11308900A941616170618060906089500240A94E1
S11308A012161306140605060895092E0394000C67
S11308B011F4882352F0BB0F40F4BF2B11F460FFF6
S11308C004C06F5F7F4F8F4F9F4F089557FD90581F
S11308D0440F551F59F05F3F71F04795880F97FB00
S11308E0991F61F09F3F79F08795089512161306BA
S11308F01406551FF2CF4695F1DF08C016161706E9
S11309001806991FF1CF869571056105089408951D
S1130910E894BB2766277727CB0197F908950E94AF
S1130920A2040C9455040E94470438F00E944E041B
S113093020F0952311F00C943E040C9444041124EB
S11309400C9489040E94660470F3959FC1F3950F7B
S113095050E0551F629FF001729FBB27F00DB11D3F
S1130960639FAA27F00DB11DAA1F649F6627B00DCF
S1130970A11D661F829F2227B00DA11D621F739FB8
S1130980B00DA11D621F839FA00D611D221F749FC6
S11309903327A00D611D231F849F600D211D822F0D
S11309A0762F6A2F11249F5750409AF0F1F0882334
S11309B04AF0EE0FFF1FBB1F661F771F881F915061
S11309C05040A9F79E3F510580F00C943E040C94CE
S11309D089045F3FE4F3983ED4F386957795679551
S11309E0B795F795E7959F5FC1F7FE2B880F911D8B
S11309F09695879597F90895AEE0B0E0E2E0F5E0CA
S1130A000C94BD070D891E8986E08C831A830983A3
S1130A108FEF9FE79E838D83AE01475E5F4F6F89A3
S1130A20788DCE0101960E941E05EF81F885E00FB6
S1130A30F11F10822E96E4E00C94D907ABE0B0E0ED
S1130A40E4E2F5E00C94AF076C017B018A01FC0140
S1130A5017821682838181FFCCC1CE0101963C01AD
S1130A60F6019381F70193FD859193FF81917F01B5
S1130A70882309F4BAC1853239F493FD859193FF33
S1130A8081917F01853229F4B60190E00E94150717
S1130A90E7CF912C212C312CFFE1F315D8F08B32C8
S1130AA079F038F4803279F08332A1F4232D206177
S1130AB01DC08D3261F0803369F4232D216016C08E
S1130AC0832D8260382EE32DE4603E2E2AC0F32D60
S1130AD0F8601DC037FC2DC020ED280F2A3040F0EF
S1130AE08E32B9F436FC81C1232D2064322E19C014
S1130AF036FE06C08AE0989E200D1124922E11C065
S1130B00EAE02E9E200D1124222EF32DF0623F2EBA
S1130B1008C08C3621F4832D8068382E02C08836B4
S1130B2041F4F70193FD859193FF81917F01811138
S1130B30B3CF982F9F7D9554933028F40C5F1F4FAB
S1130B409FE399830DC0833631F0833771F0833589
S1130B5009F059C021C0F801808189830E5F1F4FBD
S1130B6088248394912C530113C02801F2E04F0E82
S1130B70511CF801A080B18036FE03C0692D70E0DD
S1130B8002C06FEF7FEFC5010E940A074C0182018A
S1130B90F32DFF773F2E16C0280122E0420E511C90
S1130BA0F801A080B18036FE03C0692D70E002C058
S1130BB06FEF7FEFC5010E94FF064C01F32DF06833
S1130BC03F2E820133FC1BC0822D90E088169906CB
S1130BD0B0F4B60180E290E00E9415072A94F4CFA5
S1130BE0F50137FC859137FE81915F01B60190E0F4
S1130BF00E94150721102A9421E0821A9108811479
S1130C00910471F7E8C0843611F0893641F5F80192
S1130C1037FE07C060817181828193810C5F1F4F11
S1130C2008C060817181072E000C880B990B0E5F40
S1130C301F4FF32DFF763F2E97FF09C090958095A7
S1130C40709561957F4F8F4F9F4FF0683F2E2AE03C
S1130C5030E0A3010E945107882E861845C08537CD
S1130C6031F4232D2F7EB22E2AE030E025C0932DBF
S1130C70997FB92E8F36C1F018F4883579F0B5C054
S1130C80803719F0883721F0B0C0E92FE061BE2E1B
S1130C90B4FE0DC0FB2DF460BF2E09C034FE0AC0A3
S1130CA0292F2660B22E06C028E030E005C020E1DE
S1130CB030E002C020E132E0F801B7FE07C06081F5
S1130CC07181828193810C5F1F4F06C060817181A5
S1130CD080E090E00E5F1F4FA3010E945107882E11
S1130CE08618FB2DFF773F2E36FE0DC0232D2E7F59
S1130CF0A22E891458F434FE0BC032FC09C0832D93
S1130D008E7EA82E05C0B82CA32C03C0B82C01C01D
S1130D10B92CA4FE0FC0FE01E80DF11D80818033C3
S1130D2021F49A2D997EA92E09C0A2FE06C0B3947F
S1130D30B39404C08A2D867809F0B394A3FC11C03F
S1130D40A0FE06C0B21488F4280C922C9B180EC086
S1130D50B21460F4B60180E290E00E941507B394E7
S1130D60F7CFB21418F42B1802C0982C212CA4FE2F
S1130D7010C0B60180E390E00E941507A2FE17C0E0
S1130D80A1FC03C088E790E002C088E590E0B601CA
S1130D900CC08A2D867859F0A1FE02C08BE201C0F6
S1130DA080E2A7FC8DE2B60190E00E941507891449
S1130DB038F4B60180E390E00E9415079A94F7CFC7
S1130DC08A94F301E80DF11D8081B60190E00E9440
S1130DD015078110F5CF222009F442CEB60180E236
S1130DE090E00E9415072A94F6CFF6018681978138
S1130DF002C08FEF9FEF2B96E2E10C94CB07FC012E
S1130E000590615070400110D8F7809590958E0F31
S1130E109F1F0895FC016150704001900110D8F7A4
S1130E20809590958E0F9F1F08950F931F93CF93D6
S1130E30DF93FB01238121FD03C08FEF9FEF2CC0C3
S1130E4022FF16C0468157812481358142175307FA
S1130E5044F4A081B1819D012F5F3F4F31832083F2
S1130E608C93268137812F5F3F4F3783268314C0AD
S1130E708B01EC01FB010084F185E02D0995892BA0
S1130E80E1F6D80116968D919C91179701961796C5
S1130E909C938E931697CE01DF91CF911F910F9162
S1130EA00895FA01AA27283051F1203181F1E894FC
S1130EB06F936E7F6E5F7F4F8F4F9F4FAF4FB1E049
S1130EC03ED0B4E03CD0670F781F891F9A1FA11D44
S1130ED0680F791F8A1F911DA11D6A0F711D811D45
S1130EE0911DA11D20D009F468943F912AE0269F0A
S1130EF011243019305D3193DEF6CF010895462F69
S1130F004770405D4193B3E00FD0C9F7F6CF462F49
S1130F104F70405D4A3318F0495D31FD40524193B2
S1130F2002D0A9F7EACFB4E0A6959795879577956F
S1130F306795BA95C9F700976105710508959B01F6
S1130F40AC010A2E06945795479537952795BA957F
S1130F50C9F7620F731F841F951FA01D08952F9258
S1130F603F924F925F926F927F928F929F92AF9235
S1130F70BF92CF92DF92EF92FF920F931F93CF9382
S1130F80DF93CDB7DEB7CA1BDB0B0FB6F894DEBF19
S1130F900FBECDBF09942A88398848885F846E843F
S1130FA07D848C849B84AA84B984C884DF80EE8089
S1130FB0FD800C811B81AA81B981CE0FD11D0FB692
S1130FC0F894DEBF0FBECDBFED010895F894FFCFB6
S1130FD0010000009AFF5246312F343000252E3490
S1130FE06420696E636865732053434C00252E3476
S10D0FF06420696E636865732000D5
S9030000FC
