:100000000C945B000C9483000C9483000C942901E5
:100010000C9420020C9483000C9483000C948300B5
:100020000C9483000C9483000C9483000C94830044
:100030000C9483000C9483000C9483000C94830034
:100040000C9483000C9483000C9483000C94830024
:100050000C9483000C9483000C9483000C94830014
:100060000C9483000C9483000C9483000C94830004
:100070000C9483000C9483000C9483000C948300F4
:100080000C9483000C9483000C9483000C948300E4
:100090000C9483000C9483000C9483000C948300D4
:1000A0000C9483000C9483000C9483000C948300C4
:1000B0000C9483004E0411241FBECFEFD8E0DEBFA6
:1000C000CDBF11E0A0E0B1E0E2EEF3E102C00590A7
:1000D0000D92A233B107D9F721E0A2E3B1E001C04C
:1000E0001D92A637B207E1F710E0CBE5D0E004C0DF
:1000F0002197FE010E94FF06CA35D107C9F70E9469
:10010000F1020C94EF090C9400009BB19F70282F12
:10011000207F922B9BB940984198429A35E03A95BE
:10012000F1F700004298EFE8F1E03197F1F700C0F5
:1001300000002BB12F70F0E18F9FC0011124822BA2
:100140008BB9429A35E03A95F1F7000042988FE872
:1001500091E00197F1F700C0000008959BB19F70F6
:10016000282F207F922B9BB9409A4198429A35E0E4
:100170003A95F1F7000042982BB12F7030E1839F40
:10018000C0011124822B8BB9429A85E08A95F1F740
:10019000000042988FE891E00197F1F700C000005D
:1001A00008958FEF8AB987B1876087B9429883E352
:1001B0000E94850082E30E94850088E20E948500FB
:1001C0008EE00E94850081E00E9485008FE39FE120
:1001D0000197F1F700C0000086E00E9485000895B5
:1001E000CF93DF9300D000D0CDB7DEB790E89983EE
:1001F00090EC9A8394E99B8394ED9C83FE01E60F37
:10020000F11D81509081890F0E9485008FE891E057
:100210000197F1F700C000000F900F900F900F9022
:10022000DF91CF9108950F931F93CF93FC018081AD
:10023000882359F08F01C0E00E94AE00CF5FF80123
:10024000EC0FF11D80818111F7CFCF911F910F919C
:1002500008951F920F920FB60F921124CF92DF9242
:10026000EF92FF922F933F934F935F936F937F9300
:100270008F939F93AF93BF93EF93FF931A99CBC044
:10028000189965C08091040190910501A091060123
:10029000B09107014091000150910101609102016C
:1002A00070910301841B950BA60BB70B809304017F
:1002B00090930501A0930601B0930701609104019A
:1002C0007091050180910601909107010F2EFAE0CF
:1002D000CF2ED12CE12CF12CF02DA70196010E94FC
:1002E000AA0620933E0130933F0140934001509372
:1002F0004101609104017091050180910601909186
:100300000701A70196010E94AA066093420170931B
:1003100043018093440190934501809104019091A1
:100320000501A0910601B09107014497A105B1050F
:100330000CF071C084E190E0A0E0B0E08093040193
:1003400090930501A0930601B093070164C040910A
:10035000040150910501609106017091070180919F
:10036000000190910101A0910201B0910301840F5D
:10037000951FA61FB71F8093040190930501A093BA
:100380000601B0930701609104017091050180910D
:100390000601909107010F2EFAE0CF2ED12CE12C0F
:1003A000F12CF02DA70196010E94AA0620933E0190
:1003B00030933F014093400150934101609104010B
:1003C000709105018091060190910701A7019601A6
:1003D0000E94AA06609342017093430180934401F6
:1003E000909345018091040190910501A09106012F
:1003F000B0910701853B9105A105B10564F084EB3F
:1004000090E0A0E0B0E08093040190930501A093F8
:100410000601B0930701FF91EF91BF91AF919F91BA
:100420008F917F916F915F914F913F912F91FF90AD
:10043000EF90DF90CF900F900FBE0F901F90189508
:100440001F920F920FB60F9211248F939F93AF9329
:10045000BF9333997BC081E090E0A0E0B0E080934F
:10046000360190933701A0933801B0933901809100
:10047000000190910101A0910201B0910301019747
:10048000A105B105C9F485E090E0A0E0B0E080935B
:10049000000190930101A0930201B093030180E356
:1004A0009EE2909333018093320185E390E0909334
:1004B00035018093340152C0809100019091010177
:1004C000A0910201B09103010597A105B105C9F4FE
:1004D0008AE090E0A0E0B0E08093000190930101F9
:1004E000A0930201B093030181E399E69093330155
:1004F000809332018EE690E0909335018093340131
:100500002DC08091000190910101A0910201B09154
:1005100003010A97A105B10509F581E090E0A0E08B
:10052000B0E08093000190930101A0930201B09389
:10053000030180E39EE2909333018093320181E3D3
:1005400090E0909335018093340108C010923601F9
:10055000109237011092380110923901BF91AF917A
:100560009F918F910F900FBE0F901F901895CF9372
:10057000DF9300D000D0CDB7DEB769837A838B8359
:100580009C8389819A81AB81BC81BB2334F480ED4B
:1005900097E0909389008093880089819A81AB814C
:1005A000BC81181619061A061B0634F488EB9BE06A
:1005B000909389008093880089819A81AB81BC8166
:1005C000892B8A2B8B2B31F484EC99E09093890052
:1005D000809388000F900F900F900F90DF91CF9134
:1005E00008958AE090E0A0E0B0E08093000190934D
:1005F0000101A0930201B093030181E399E6909376
:100600003301809332018EE690E090933501809320
:10061000340180E287B9219A14B814B8219AE8E627
:10062000F0E0808181608083ABE6B0E08C918160F6
:100630008C938C918C93808182608083ECE6F0E0D7
:100640008081886080831092900084E08093910084
:100650001092710082E8809380008AE1809381008B
:1006600080E49CE9909387008093860088EE93E075
:10067000909389008093880078940F2EFCE0AF2E31
:10068000F1E0BF2EF02D0F2EFAE5CF2EF1E0DF2E98
:10069000F02D0F2EF0E22F2EF1E03F2EF02D0F2E39
:1006A000F6E4EF2EF1E0FF2EF02D6894992495F8F2
:1006B000C4E9D0E04091420150914301609144016E
:1006C0007091450180913E0190913F01A0914001C0
:1006D000B09141017F936F935F934F93BF93AF931B
:1006E0009F938F93BF92AF92DF92CF920E940507A4
:1006F000809173018F93809172018F938091750126
:100700008F93809174018F933F922F92FF92EF927B
:100710000E9405070E94D10061E081E00E94F00084
:10072000C6010E94130162E081E00E94F000C7014F
:100730000E94130182E391E00E9413016091040181
:100740007091050180910601909107010E949D051D
:1007500020916E0130916F014091700150917101B3
:100760000E9486040E94650560933A0170933B01E4
:1007700080933C0190933D0160913A0170913B015F
:1007800080913C0190913D010E94B70298B825E309
:100790002A95F1F7000018B886B1807190E02DB766
:1007A0003EB72C5E3F4F0FB6F8943EBF0FBE2DBF35
:1007B000409734F086B1807190E040974CF40FC0C0
:1007C0001982188286B1807190E04097CCF3F2CF05
:1007D0000881198186B1807190E04097CCF7073489
:1007E00039E0130768F083E690E0909375018093F9
:1007F000740129E030E0309373012093720144C00A
:1008000020E034E244E757E4609108017091090167
:1008100080910A0190910B010E94F3042B013C018D
:10082000B80180E090E00E949B059B01AC01C301F0
:10083000B2010E94290620E030E040E05FE30E9420
:1008400029062B013C0160936E0170936F01809328
:1008500070019093710120E030E040E251E40E9489
:10086000F3040E946C057093750160937401C301D9
:10087000B2010E946505CB016AE070E00E94960615
:1008800090937301809372013FEF83EF91E03150B9
:1008900080409040E1F700C000000CCFCF92DF9283
:1008A000EF92FF9260910401709105018091060121
:1008B000909107010F2EFAE0CF2ED12CE12CF12CD4
:1008C000F02DA70196010E94AA0660934201709341
:1008D000430180934401909345016091040170911C
:1008E00005018091060190910701A70196010E94E0
:1008F000AA0620933E0130933F014093400150935C
:100900004101FF90EF90DF90CF9008955058BB27A2
:10091000AA270E949E040C94EF050E94E10538F07E
:100920000E94E80520F039F49F3F19F426F40C9456
:10093000DE050EF4E095E7FB0C94D805E92F0E9444
:10094000000658F3BA17620773078407950720F06B
:1009500079F4A6F50C9422060EF4E0950B2EBA2F2E
:10096000A02D0B01B90190010C01CA01A0011124B5
:10097000FF27591B99F0593F50F4503E68F11A1661
:10098000F040A22F232F342F4427585FF3CF4695F2
:1009900037952795A795F0405395C9F77EF41F1614
:1009A000BA0B620B730B840BBAF09150A1F0FF0FDE
:1009B000BB1F661F771F881FC2F70EC0BA0F621FCA
:1009C000731F841F48F4879577956795B795F795BA
:1009D0009E3F08F0B0CF9395880F08F09927EE0F4F
:1009E0009795879508950E9407050C94EF050E943E
:1009F000E80558F00E94E10540F029F45F3F29F036
:100A00000C94D80551110C9423060C94DE050E9419
:100A1000000668F39923B1F3552391F3951B550B09
:100A2000BB27AA2762177307840738F09F5F5F4FC1
:100A3000220F331F441FAA1FA9F335D00E2E3AF000
:100A4000E0E832D091505040E695001CCAF72BD018
:100A5000FE2F29D0660F771F881FBB1F2617370769
:100A60004807AB07B0E809F0BB0B802DBF01FF279B
:100A700093585F4F3AF09E3F510578F00C94D8059B
:100A80000C9423065F3FE4F3983ED4F38695779564
:100A90006795B795F7959F5FC9F7880F911D969554
:100AA000879597F90895E1E0660F771F881FBB1FB0
:100AB000621773078407BA0720F0621B730B840B5D
:100AC000BA0BEE1F88F7E09508950E946C056894B4
:100AD000B1110C94230608950E94080688F09F57D0
:100AE00098F0B92F9927B751B0F0E1F0660F771F52
:100AF000881F991F1AF0BA95C9F714C0B13091F048
:100B00000E942206B1E008950C942206672F782FE8
:100B10008827B85F39F0B93FCCF38695779567950C
:100B2000B395D9F73EF490958095709561957F4F78
:100B30008F4F9F4F0895E89409C097FB3EF490951E
:100B40008095709561957F4F8F4F9F4F9923A9F0A6
:100B5000F92F96E9BB279395F69587957795679535
:100B6000B795F111F8CFFAF4BB0F11F460FF1BC079
:100B70006F5F7F4F8F4F9F4F16C0882311F096E90C
:100B800011C0772321F09EE8872F762F05C06623BA
:100B900071F096E8862F70E060E02AF09A95660F73
:100BA000771F881FDAF7880F9695879597F908952C
:100BB00097F99F6780E870E060E008959FEF80EC10
:100BC000089500240A9416161706180609060895B3
:100BD00000240A9412161306140605060895092E19
:100BE0000394000C11F4882352F0BB0F40F4BF2B88
:100BF00011F460FF04C06F5F7F4F8F4F9F4F0895C8
:100C000057FD9058440F551F59F05F3F71F04795BD
:100C1000880F97FB991F61F09F3F79F087950895A2
:100C2000121613061406551FF2CF4695F1DF08C0C1
:100C3000161617061806991FF1CF869571056105DE
:100C400008940895E894BB2766277727CB0197F986
:100C500008950E943C060C94EF050E94E10538F0CF
:100C60000E94E80520F0952311F00C94D8050C940F
:100C7000DE0511240C9423060E94000670F3959F54
:100C8000C1F3950F50E0551F629FF001729FBB2783
:100C9000F00DB11D639FAA27F00DB11DAA1F649F1F
:100CA0006627B00DA11D661F829F2227B00DA11DD2
:100CB000621F739FB00DA11D621F839FA00D611D58
:100CC000221F749F3327A00D611D231F849F600D79
:100CD000211D822F762F6A2F11249F5750409AF0A2
:100CE000F1F088234AF0EE0FFF1FBB1F661F771F2E
:100CF000881F91505040A9F79E3F510580F00C94F9
:100D0000D8050C9423065F3FE4F3983ED4F3869510
:100D100077956795B795F795E7959F5FC1F7FE2B98
:100D2000880F911D9695879597F9089597FB072E43
:100D300016F4009407D077FD09D00E94C90607FC7D
:100D400005D03EF4909581959F4F089570956195DB
:100D50007F4F0895052E97FB1EF400940E94C10654
:100D600057FD07D00E94DD0607FC03D04EF40C941B
:100D7000C10650954095309521953F4F4F4F5F4F9D
:100D8000089590958095709561957F4F8F4F9F4FF7
:100D90000895AA1BBB1B51E107C0AA1FBB1FA617C2
:100DA000B70710F0A61BB70B881F991F5A95A9F714
:100DB00080959095BC01CD010895A1E21A2EAA1B41
:100DC000BB1BFD010DC0AA1FBB1FEE1FFF1FA217FB
:100DD000B307E407F50720F0A21BB30BE40BF50BF8
:100DE000661F771F881F991F1A9469F76095709581
:100DF000809590959B01AC01BD01CF010895EE0F48
:100E0000FF1F0590F491E02D0994AEE0B0E0EBE017
:100E1000F7E00C94C6090D891E8986E08C831A833D
:100E200009838FEF9FE79E838D83AE01475E5F4FFF
:100E30006F89788DCE0101960E942707EF81F88592
:100E4000E00FF11F10822E96E4E00C94E209ABE073
:100E5000B0E0EDE2F7E00C94B8096C017B018A0187
:100E6000FC0117821682838181FFCCC1CE010196DD
:100E70003C01F6019381F70193FD859193FF8191E8
:100E80007F01882309F4BAC1853239F493FD859135
:100E900093FF81917F01853229F4B60190E00E9491
:100EA0001E09E7CF912C212C312CFFE1F315D8F04E
:100EB0008B3279F038F4803279F08332A1F4232D2B
:100EC00020611DC08D3261F0803369F4232D2160D3
:100ED00016C0832D8260382EE32DE4603E2E2AC09A
:100EE000F32DF8601DC037FC2DC020ED280F2A30EF
:100EF00040F08E32B9F436FC81C1232D2064322EAD
:100F000019C036FE06C08AE0989E200D1124922E4C
:100F100011C0EAE02E9E200D1124222EF32DF06246
:100F20003F2E08C08C3621F4832D8068382E02C0F5
:100F3000883641F4F70193FD859193FF81917F01FC
:100F40008111B3CF982F9F7D9554933028F40C5F77
:100F50001F4F9FE399830DC0833631F0833771F0C3
:100F6000833509F059C021C0F801808189830E5F63
:100F70001F4F88248394912C530113C02801F2E061
:100F80004F0E511CF801A080B18036FE03C0692DC0
:100F900070E002C06FEF7FEFC5010E9413094C01A2
:100FA0008201F32DFF773F2E16C0280122E0420E6A
:100FB000511CF801A080B18036FE03C0692D70E09D
:100FC00002C06FEF7FEFC5010E9408094C01F32DAD
:100FD000F0683F2E820133FC1BC0822D90E0881602
:100FE0009906B0F4B60180E290E00E941E092A94AE
:100FF000F4CFF50137FC859137FE81915F01B60191
:1010000090E00E941E0921102A9421E0821A910882
:101010008114910471F7E8C0843611F0893641F5E6
:10102000F80137FE07C060817181828193810C5F76
:101030001F4F08C060817181072E000C880B990B2F
:101040000E5F1F4FF32DFF763F2E97FF09C090953F
:101050008095709561957F4F8F4F9F4FF0683F2E21
:101060002AE030E0A3010E945A09882E861845C064
:10107000853731F4232D2F7EB22E2AE030E025C0B3
:10108000932D997FB92E8F36C1F018F4883579F0F9
:10109000B5C0803719F0883721F0B0C0E92FE06182
:1010A000BE2EB4FE0DC0FB2DF460BF2E09C034FE71
:1010B0000AC0292F2660B22E06C028E030E005C005
:1010C00020E130E002C020E132E0F801B7FE07C0C5
:1010D00060817181828193810C5F1F4F06C06081A6
:1010E000718180E090E00E5F1F4FA3010E945A09BA
:1010F000882E8618FB2DFF773F2E36FE0DC0232D40
:101100002E7FA22E891458F434FE0BC032FC09C085
:10111000832D8E7EA82E05C0B82CA32C03C0B82C1E
:1011200001C0B92CA4FE0FC0FE01E80DF11D8081A5
:10113000803321F49A2D997EA92E09C0A2FE06C003
:10114000B394B39404C08A2D867809F0B394A3FCB9
:1011500011C0A0FE06C0B21488F4280C922C9B1873
:101160000EC0B21460F4B60180E290E00E941E0945
:10117000B394F7CFB21418F42B1802C0982C212C7A
:10118000A4FE10C0B60180E390E00E941E09A2FEFA
:1011900017C0A1FC03C088E790E002C088E590E09A
:1011A000B6010CC08A2D867859F0A1FE02C08BE2F0
:1011B00001C080E2A7FC8DE2B60190E00E941E090A
:1011C000891438F4B60180E390E00E941E099A94D5
:1011D000F7CF8A94F301E80DF11D8081B60190E00C
:1011E0000E941E098110F5CF222009F442CEB601DB
:1011F00080E290E00E941E092A94F6CFF6018681D3
:10120000978102C08FEF9FEF2B96E2E10C94D409F7
:10121000FC010590615070400110D8F780959095C1
:101220008E0F9F1F0895FC016150704001900110C6
:10123000D8F7809590958E0F9F1F08950F931F9359
:10124000CF93DF93FB01238121FD03C08FEF9FEF3D
:101250002CC022FF16C04681578124813581421758
:10126000530744F4A081B1819D012F5F3F4F31832B
:1012700020838C93268137812F5F3F4F37832683CE
:1012800014C08B01EC01FB010084F185E02D099570
:10129000892BE1F6D80116968D919C9117970196AE
:1012A00017969C938E931697CE01DF91CF911F9145
:1012B0000F910895FA01AA27283051F1203181F1C8
:1012C000E8946F936E7F6E5F7F4F8F4F9F4FAF4F4E
:1012D000B1E03ED0B4E03CD0670F781F891F9A1F61
:1012E000A11D680F791F8A1F911DA11D6A0F711D15
:1012F000811D911DA11D20D009F468943F912AE021
:10130000269F11243019305D3193DEF6CF01089508
:10131000462F4770405D4193B3E00FD0C9F7F6CF39
:10132000462F4F70405D4A3318F0495D31FD405201
:10133000419302D0A9F7EACFB4E0A6959795879597
:1013400077956795BA95C9F7009761057105089576
:101350009B01AC010A2E0694579547953795279522
:10136000BA95C9F7620F731F841F951FA01D0895BA
:101370002F923F924F925F926F927F928F929F92A5
:10138000AF92BF92CF92DF92EF92FF920F931F9393
:10139000CF93DF93CDB7DEB7CA1BDB0B0FB6F89444
:1013A000DEBF0FBECDBF09942A88398848885F8484
:1013B0006E847D848C849B84AA84B984C884DF80F5
:1013C000EE80FD800C811B81AA81B981CE0FD11DD9
:1013D0000FB6F894DEBF0FBECDBFED010895F894AF
:0213E000FFCF3D
:1013E2000100000050000000C0DF0348544F3A20C3
:1013F200252E32642E20256420696E2053434C0032
:1014020041543A20252E32642E20256420696E2014
:021412000000D8
:00000001FF
