:100000000C945A000C9477000C9477000C941D010A
:100010000C9464010C9477000C9477000C94770096
:100020000C9477000C9477000C9477000C94770074
:100030000C9477000C9477000C9477000C94770064
:100040000C9477000C9477000C9477000C94770054
:100050000C9477000C9477000C9477000C94770044
:100060000C9477000C9477000C9477000C94770034
:100070000C9477000C9477000C9477000C94770024
:100080000C9477000C9477000C9477000C94770014
:100090000C9477000C9477000C9477000C94770004
:1000A0000C9477000C9477000C9477000C947700F4
:1000B0000C94770011241FBECFEFD8E0DEBFCDBF78
:1000C00011E0A0E0B1E0ECEFFEE002C005900D927F
:1000D000AC32B107D9F721E0ACE2B1E001C01D922A
:1000E000A236B207E1F70E9408020C947C070C9438
:1000F00000009BB19F70282F207F922B9BB94098C6
:100100004198429A35E03A95F1F700004298EFE8BD
:10011000F1E03197F1F700C000002BB12F70F0E152
:100120008F9FC0011124822B8BB9429A35E03A95FA
:10013000F1F7000042988FE891E00197F1F700C0D5
:10014000000008959BB19F70282F207F922B9BB9B0
:10015000409A4198429A35E03A95F1F7000042986A
:100160002BB12F7030E1839FC0011124822B8BB9FA
:10017000429A85E08A95F1F7000042988FE891E075
:100180000197F1F700C0000008958FEF8AB987B199
:10019000876087B9429883E30E94790082E30E94D6
:1001A000790088E20E9479008EE00E94790081E067
:1001B0000E9479008FE39FE10197F1F700C00000F2
:1001C00086E00E9479000895CF93DF9300D000D09D
:1001D000CDB7DEB790E8998390EC9A8394E99B833E
:1001E00094ED9C83FE01E60FF11D81509081890FF3
:1001F0000E9479008FE891E00197F1F700C00000BC
:100200000F900F900F900F90DF91CF9108950F9363
:100210001F93CF93FC018081882359F08F01C0E0A8
:100220000E94A200CF5FF801EC0FF11D80818111C7
:10023000F7CFCF911F910F9108951F920F920FB694
:100240000F9211242F933F934F935F936F937F935C
:100250008F939F93AF93BF931A9927C0189913C098
:1002600040910001509101016091020170910301E0
:100270008091340190913501841B950B9093350149
:100280008093340112C08091000190910101A091EE
:100290000201B09103012091340130913501820FA8
:1002A000931F9093350180933401BF91AF919F913B
:1002B0008F917F916F915F914F913F912F910F900F
:1002C0000FBE0F901F9018951F920F920FB60F92AE
:1002D00011248F939F93AF93BF93EF93FF93339921
:1002E00072C081E090E0A0E0B0E080933001909394
:1002F0003101A0933201B0933301809100019091BC
:100300000101A0910201B09103010197A105B1057E
:10031000C9F482E090E0A0E0B0E080930001909307
:100320000101A0930201B093030181E39FE2909346
:100330002D0180932C0184E390E090932F01809312
:100340002E0149C08091000190910101A09102010C
:10035000B09103010297A105B105B1F483E090E0EB
:10036000A0E0B0E08093000190930101A09302010E
:10037000B093030185E0EAE0F1E0ACE2B1E0019086
:100380000D928A95E1F727C08091000190910101BB
:10039000A0910201B09103010397A105B105D9F421
:1003A00081E090E0A0E0B0E0809300019093010133
:1003B000A0930201B093030181E390E090932D019B
:1003C00080932C0108C010923001109231011092DC
:1003D000320110923301FF91EF91BF91AF919F9144
:1003E0008F910F900FBE0F901F9018951816190639
:1003F00034F420E639E03093890020938800992373
:1004000034F480E89CE090938900809388000895FC
:10041000CF93DF9300D000D000D0CDB7DEB780E21D
:1004200087B9219A14B814B8E8E6F0E080818160B9
:100430008083ABE6B0E08C9181608C938081826098
:100440008083ECE6F0E080818860808310929000E9
:1004500084E0809391001092710082E88093800084
:100460008AE18093810080E49CE9909387008093E7
:10047000860088EE93E090938900809388007894BA
:100480000F2EFFE0AF2EF1E0BF2EF02D0F2EFAE47D
:10049000EF2EF1E0FF2EF02D0F2EFFE18F2EF1E079
:1004A0009F2EF02D06E311E06894332435F80F2ECB
:1004B000F4E9CF2ED12CF02D0F2EFFE06F2EF7E2B6
:1004C0007F2EF02D809135018F93809134018F9391
:1004D000BF92AF92FF92EF920E9492048091090125
:1004E0008F93809108018F939F928F921F930F9308
:1004F0000E9492040E94C50061E081E00E94E40035
:10050000C7010E94070162E081E00E94E400C80187
:100510000E9407018CE291E00E9407018091340162
:10052000909135010E94F60138B825E32A95F1F73C
:10053000000018B80FB6F894DEBF0FBECDBF86B16D
:10054000807190E04097DCF3F6011182108286B151
:10055000807190E04097DCF7F6010190F081E02D8A
:10056000FE83ED83E734F94028F070920901609230
:10057000080135C020E034E244E757E4609104010B
:100580007091050180910601909107010E94F60289
:1005900069837A838B839C83ED81FE81BF0180E038
:1005A00090E00E9497039B01AC0169817A818B8165
:1005B0009C810E94250420E030E040E05FE30E943F
:1005C000250460935E0170935F01809360019093B6
:1005D00061010E94680370930901609308018FE331
:1005E0009CE90197F1F700C000006CCF0E940A035C
:1005F0000C94EB030E94E40358F00E94DD0340F0EA
:1006000029F45F3F29F00C94D40351110C941F047A
:100610000C94DA030E94FC0368F39923B1F3552389
:1006200091F3951B550BBB27AA2762177307840705
:1006300038F09F5F5F4F220F331F441FAA1FA9F39B
:1006400035D00E2E3AF0E0E832D091505040E69589
:10065000001CCAF72BD0FE2F29D0660F771F881FEA
:10066000BB1F261737074807AB07B0E809F0BB0BDD
:10067000802DBF01FF2793585F4F3AF09E3F5105F1
:1006800078F00C94D4030C941F045F3FE4F3983E7D
:10069000D4F3869577956795B795F7959F5FC9F7DA
:1006A000880F911D9695879597F90895E1E0660F5B
:1006B000771F881FBB1F621773078407BA0720F0D4
:1006C000621B730B840BBA0BEE1F88F7E09508953D
:1006D0000E94040488F09F5798F0B92F9927B751CA
:1006E000B0F0E1F0660F771F881F991F1AF0BA95D6
:1006F000C9F714C0B13091F00E941E04B1E0089512
:100700000C941E04672F782F8827B85F39F0B93F03
:10071000CCF3869577956795B395D9F73EF4909588
:100720008095709561957F4F8F4F9F4F0895E89406
:1007300009C097FB3EF490958095709561957F4F29
:100740008F4F9F4F9923A9F0F92F96E9BB279395D7
:10075000F695879577956795B795F111F8CFFAF4E7
:10076000BB0F11F460FF1BC06F5F7F4F8F4F9F4F18
:1007700016C0882311F096E911C0772321F09EE876
:10078000872F762F05C0662371F096E8862F70E0DC
:1007900060E02AF09A95660F771F881FDAF7880FB6
:1007A0009695879597F9089597F99F6780E870E087
:1007B00060E008959FEF80EC089500240A941616D7
:1007C000170618060906089500240A94121613063F
:1007D000140605060895092E0394000C11F48823CD
:1007E00052F0BB0F40F4BF2B11F460FF04C06F5FE9
:1007F0007F4F8F4F9F4F089557FD9058440F551FBF
:1008000059F05F3F71F04795880F97FB991F61F092
:100810009F3F79F087950895121613061406551F09
:10082000F2CF4695F1DF08C0161617061806991F75
:10083000F1CF86957105610508940895E894BB276A
:1008400066277727CB0197F908950E9438040C9406
:10085000EB030E94DD0338F00E94E40320F09523AF
:1008600011F00C94D4030C94DA0311240C941F049B
:100870000E94FC0370F3959FC1F3950F50E0551F44
:10088000629FF001729FBB27F00DB11D639FAA27E5
:10089000F00DB11DAA1F649F6627B00DA11D661F34
:1008A000829F2227B00DA11D621F739FB00DA11D55
:1008B000621F839FA00D611D221F749F3327A00D0F
:1008C000611D231F849F600D211D822F762F6A2FAB
:1008D00011249F5750409AF0F1F088234AF0EE0F10
:1008E000FF1FBB1F661F771F881F91505040A9F73D
:1008F0009E3F510580F00C94D4030C941F045F3F7D
:10090000E4F3983ED4F3869577956795B795F79578
:10091000E7959F5FC1F7FE2B880F911D96958795F0
:1009200097F90895AEE0B0E0E8E9F4E00C945307DD
:100930000D891E8986E08C831A8309838FEF9FE7D8
:100940009E838D83AE01475E5F4F6F89788DCE01A8
:1009500001960E94B404EF81F885E00FF11F108228
:100960002E96E4E00C946F07ABE0B0E0EAEBF4E025
:100970000C9445076C017B018A01FC0117821682E9
:10098000838181FFCCC1CE0101963C01F6019381A8
:10099000F70193FD859193FF81917F01882309F4ED
:1009A000BAC1853239F493FD859193FF81917F011E
:1009B000853229F4B60190E00E94AB06E7CF912C76
:1009C000212C312CFFE1F315D8F08B3279F038F47B
:1009D000803279F08332A1F4232D20611DC08D3245
:1009E00061F0803369F4232D216016C0832D82606D
:1009F000382EE32DE4603E2E2AC0F32DF8601DC092
:100A000037FC2DC020ED280F2A3040F08E32B9F48B
:100A100036FC81C1232D2064322E19C036FE06C05B
:100A20008AE0989E200D1124922E11C0EAE02E9E9D
:100A3000200D1124222EF32DF0623F2E08C08C369B
:100A400021F4832D8068382E02C0883641F4F701E6
:100A500093FD859193FF81917F018111B3CF982FF1
:100A60009F7D9554933028F40C5F1F4F9FE399832B
:100A70000DC0833631F0833771F0833509F059C0EA
:100A800021C0F801808189830E5F1F4F88248394E1
:100A9000912C530113C02801F2E04F0E511CF801B4
:100AA000A080B18036FE03C0692D70E002C06FEFF8
:100AB0007FEFC5010E94A0064C018201F32DFF7754
:100AC0003F2E16C0280122E0420E511CF801A080E2
:100AD000B18036FE03C0692D70E002C06FEF7FEF7A
:100AE000C5010E9495064C01F32DF0683F2E82014E
:100AF00033FC1BC0822D90E088169906B0F4B60135
:100B000080E290E00E94AB062A94F4CFF50137FC16
:100B1000859137FE81915F01B60190E00E94AB069E
:100B200021102A9421E0821A91088114910471F70E
:100B3000E8C0843611F0893641F5F80137FE07C068
:100B400060817181828193810C5F1F4F08C0608139
:100B50007181072E000C880B990B0E5F1F4FF32D30
:100B6000FF763F2E97FF09C090958095709561950F
:100B70007F4F8F4F9F4FF0683F2E2AE030E0A30158
:100B80000E94E706882E861845C0853731F4232D4C
:100B90002F7EB22E2AE030E025C0932D997FB92E0A
:100BA0008F36C1F018F4883579F0B5C0803719F068
:100BB000883721F0B0C0E92FE061BE2EB4FE0DC031
:100BC000FB2DF460BF2E09C034FE0AC0292F266019
:100BD000B22E06C028E030E005C020E130E002C0BF
:100BE00020E132E0F801B7FE07C0608171818281A7
:100BF00093810C5F1F4F06C06081718180E090E09F
:100C00000E5F1F4FA3010E94E706882E8618FB2D5A
:100C1000FF773F2E36FE0DC0232D2E7FA22E891486
:100C200058F434FE0BC032FC09C0832D8E7EA82EF2
:100C300005C0B82CA32C03C0B82C01C0B92CA4FE4D
:100C40000FC0FE01E80DF11D8081803321F49A2D43
:100C5000997EA92E09C0A2FE06C0B394B39404C025
:100C60008A2D867809F0B394A3FC11C0A0FE06C0BB
:100C7000B21488F4280C922C9B180EC0B21460F4A5
:100C8000B60180E290E00E94AB06B394F7CFB214B5
:100C900018F42B1802C0982C212CA4FE10C0B60109
:100CA00080E390E00E94AB06A2FE17C0A1FC03C047
:100CB00088E790E002C088E590E0B6010CC08A2D7C
:100CC000867859F0A1FE02C08BE201C080E2A7FC49
:100CD0008DE2B60190E00E94AB06891438F4B601AB
:100CE00080E390E00E94AB069A94F7CF8A94F301D8
:100CF000E80DF11D8081B60190E00E94AB068110E5
:100D0000F5CF222009F442CEB60180E290E00E94A5
:100D1000AB062A94F6CFF6018681978102C08FEF49
:100D20009FEF2B96E2E10C946107FC010590615066
:100D300070400110D8F7809590958E0F9F1F0895F1
:100D4000FC016150704001900110D8F7809590959A
:100D50008E0F9F1F08950F931F93CF93DF93FB0177
:100D6000238121FD03C08FEF9FEF2CC022FF16C00F
:100D700046815781248135814217530744F4A0816D
:100D8000B1819D012F5F3F4F318320838C9326815A
:100D900037812F5F3F4F3783268314C08B01EC01CF
:100DA000FB010084F185E02D0995892BE1F6D8013E
:100DB00016968D919C911797019617969C938E93FA
:100DC0001697CE01DF91CF911F910F910895FA01EF
:100DD000AA27283051F1203181F1E8946F936E7F7A
:100DE0006E5F7F4F8F4F9F4FAF4FB1E03ED0B4E06B
:100DF0003CD0670F781F891F9A1FA11D680F791FAC
:100E00008A1F911DA11D6A0F711D811D911DA11DBC
:100E100020D009F468943F912AE0269F11243019CC
:100E2000305D3193DEF6CF010895462F4770405D67
:100E30004193B3E00FD0C9F7F6CF462F4F70405D16
:100E40004A3318F0495D31FD4052419302D0A9F771
:100E5000EACFB4E0A6959795879577956795BA956B
:100E6000C9F700976105710508959B01AC010A2E31
:100E700006945795479537952795BA95C9F7620F08
:100E8000731F841F951FA01D08952F923F924F92AC
:100E90005F926F927F928F929F92AF92BF92CF920A
:100EA000DF92EF92FF920F931F93CF93DF93CDB713
:100EB000DEB7CA1BDB0B0FB6F894DEBF0FBECDBF8B
:100EC00009942A88398848885F846E847D848C845C
:100ED0009B84AA84B984C884DF80EE80FD800C8165
:100EE0001B81AA81B981CE0FD11D0FB6F894DEBF48
:0C0EF0000FBECDBFED010895F894FFCFB8
:100EFC00010000009AFF5246D204312F34300025F5
:100F0C002E346420696E636865732053434C00254E
:0C0F1C002E346420696E63686573200049
:00000001FF
