:100000000C945B000C9483000C9483000C942901E5
:100010000C9420020C9483000C9483000C948300B5
:100020000C9483000C9483000C9483000C94830044
:100030000C9483000C9483000C9483000C94830034
:100040000C9483000C9483000C9483000C94830024
:100050000C9483000C9483000C9483000C94830014
:100060000C9483000C9483000C9483000C94830004
:100070000C9483000C9483000C9483000C948300F4
:100080000C9483000C9483000C9483000C948300E4
:100090000C9483000C9483000C9483000C948300D4
:1000A0000C9483000C9483000C9483000C948300C4
:1000B0000C9483004E0511241FBECFEFD8E0DEBFA5
:1000C000CDBF11E0A0E0B1E0EEE3F6E102C00590A3
:1000D0000D92A234B107D9F721E0A2E4B1E001C04A
:1000E0001D92A239B207E1F710E0CBE5D0E004C0E1
:1000F0002197FE010E942D08CA35D107C9F70E9439
:10010000CF030C941D0B0C9400009BB19F70282F03
:10011000207F922B9BB940984198429A35E03A95BE
:10012000F1F700004298EFE8F1E03197F1F700C0F5
:1001300000002BB12F70F0E18F9FC0011124822BA2
:100140008BB9429A35E03A95F1F7000042988FE872
:1001500091E00197F1F700C0000008959BB19F70F6
:10016000282F207F922B9BB9409A4198429A35E0E4
:100170003A95F1F7000042982BB12F7030E1839F40
:10018000C0011124822B8BB9429A85E08A95F1F740
:10019000000042988FE891E00197F1F700C000005D
:1001A00008958FEF8AB987B1876087B9429883E352
:1001B0000E94850082E30E94850088E20E948500FB
:1001C0008EE00E94850081E00E9485008FE39FE120
:1001D0000197F1F700C0000086E00E9485000895B5
:1001E000CF93DF9300D000D0CDB7DEB790E89983EE
:1001F00090EC9A8394E99B8394ED9C83FE01E60F37
:10020000F11D81509081890F0E9485008FE891E057
:100210000197F1F700C000000F900F900F900F9022
:10022000DF91CF9108950F931F93CF93FC018081AD
:10023000882359F08F01C0E00E94AE00CF5FF80123
:10024000EC0FF11D80818111F7CFCF911F910F919C
:1002500008951F920F920FB60F921124CF92DF9242
:10026000EF92FF922F933F934F935F936F937F9300
:100270008F939F93AF93BF93EF93FF931A99CBC044
:10028000189965C08091140190911501A0911601F3
:10029000B09117014091000150910101609102015C
:1002A00070910301841B950BA60BB70B809314016F
:1002B00090931501A0931601B0931701609114015A
:1002C0007091150180911601909117010F2EFAE09F
:1002D000CF2ED12CE12CF12CF02DA70196010E94FC
:1002E000D80720935A0130935B0140935C015093EF
:1002F0005D0160911401709115018091160190913A
:100300001701A70196010E94D80760935E017093C0
:100310005F0180936001909361018091140190913D
:100320001501A0911601B09117014497A105B105DF
:100330000CF071C084E190E0A0E0B0E08093140183
:1003400090931501A0931601B093170164C04091DA
:10035000140150911501609116017091170180915F
:10036000000190910101A0910201B0910301840F5D
:10037000951FA61FB71F8093140190931501A0939A
:100380001601B093170160911401709115018091CD
:100390001601909117010F2EFAE0CF2ED12CE12CEF
:1003A000F12CF02DA70196010E94D80720935A0145
:1003B00030935B0140935C0150935D0160911401A7
:1003C000709115018091160190911701A701960176
:1003D0000E94D80760935E0170935F018093600173
:1003E000909361018091140190911501A0911601E3
:1003F000B0911701853B9105A105B10564F084EB2F
:1004000090E0A0E0B0E08093140190931501A093D8
:100410001601B0931701FF91EF91BF91AF919F919A
:100420008F917F916F915F914F913F912F91FF90AD
:10043000EF90DF90CF900F900FBE0F901F90189508
:100440001F920F920FB60F9211248F939F93AF9329
:10045000BF9333997BC081E090E0A0E0B0E080934F
:10046000460190934701A0934801B09349018091C0
:10047000000190910101A0910201B0910301019747
:10048000A105B105C9F485E090E0A0E0B0E080935B
:10049000000190930101A0930201B093030180E356
:1004A0009EE2909343018093420185E390E0909314
:1004B00045018093440152C0809100019091010157
:1004C000A0910201B09103010597A105B105C9F4FE
:1004D0008AE090E0A0E0B0E08093000190930101F9
:1004E000A0930201B093030181E399E69093430145
:1004F000809342018EE690E0909345018093440101
:100500002DC08091000190910101A0910201B09154
:1005100003010A97A105B10509F581E090E0A0E08B
:10052000B0E08093000190930101A0930201B09389
:10053000030180E39EE2909343018093420181E3B3
:1005400090E0909345018093440108C010924601C9
:10055000109247011092480110924901BF91AF914A
:100560009F918F910F900FBE0F901F9018954F92F3
:100570005F926F927F928F929F92AF92BF92CF9233
:10058000DF92EF92FF92CF93DF93CDB7DEB728973C
:100590000FB6F894DEBF0FBECDBF29833A834B83DD
:1005A0005C83C980DA80EB80FC800E946A06CB0104
:1005B000770FAA0BBB0BA7019601281B390B4A0B1F
:1005C0005B0BCA01B9010E94A2066B017C0120915C
:1005D00010013091110140911201509113010E94BC
:1005E00057074B015C01209152013091530140911A
:1005F000540150915501C701B6010E9487052B0196
:100600003C0120E030E048EC52E40E94520718160A
:100610006CF480E090E0A8ECB2E4809352019093F7
:100620005301A0935401B09355011FC020E030E066
:1006300048EC52ECC301B2010E94F30588234CF050
:1006400040925201509253016092540170925501B0
:100650000CC080E090E0A8ECB2EC80935201909343
:100660005301A0935401B093550120915201309150
:100670005301409154015091550160910C017091CA
:100680000D0180910E0190910F010E9457072B01DF
:100690003C01A7019601609156017091570180912C
:1006A0005801909159010E948605209108013091CE
:1006B000090140910A0150910B010E9457076D8377
:1006C0007E838F839887C0925601D0925701E09223
:1006D0005801F0925901A3019201C501B4010E9491
:1006E00087052D813E814F8158850E9487059B019A
:1006F000AC01609104017091050180910601909117
:1007000007010E9486056B017C0120E030EA4CE085
:1007100055E40E9452071816A4F020E030EB41E0A7
:1007200055E4C701B6010E94F30588239CF40F2EFF
:10073000C12CF0EBDF2EEE24E394F5E4FF2EF02D38
:1007400009C00F2EC12CF0EADF2EFCE0EF2EF5E4FD
:10075000FF2EF02DC701B6010E947106709389002B
:1007600060938800C0920401D0920501E0920601D6
:10077000F092070128960FB6F894DEBF0FBECDBFEA
:10078000DF91CF91FF90EF90DF90CF90BF90AF902F
:100790009F908F907F906F905F904F9008958AE028
:1007A00090E0A0E0B0E08093000190930101A0935D
:1007B0000201B093030181E399E690934301809392
:1007C00042018EE690E0909345018093440180E2DF
:1007D00087B9219A14B814B8219AE8E6F0E080812C
:1007E00081608083ABE6B0E08C9181608C938C91CA
:1007F0008C93808182608083ECE6F0E08081886069
:1008000080831092900084E0809391001092710098
:1008100082E8809380008AE18093810080E49CE9F3
:100820009093870080938600E8E8F0E084E398E006
:10083000918380836081718180E090E00E94A006B6
:100840006093040170930501809306019093070162
:1008500078940F2EFCE1AF2EF1E0BF2EF02D0F2E7D
:10086000F6E7CF2EF1E0DF2EF02D0F2EF0E32F2E46
:10087000F1E03F2EF02D0F2EF2E6EF2EF1E0FF2EED
:10088000F02D6894992495F8C4E9D0E040915E0178
:1008900050915F01609160017091610180915A01F6
:1008A00090915B01A0915C01B0915D017F936F938A
:1008B0005F934F93BF93AF939F938F93BF92AF92EA
:1008C000DF92CF920E94330880918F018F938091A5
:1008D0008E018F93809191018F93809190018F93DE
:1008E0003F922F92FF92EF920E9433080E94D10014
:1008F00061E081E00E94F000C6010E94130162E005
:1009000081E00E94F000C7010E94130182E491E09F
:100910000E94130180914E0190914F01A0915001CE
:10092000B091510180934A0190934B01A0934C01E7
:10093000B0934D01609114017091150180911601E1
:10094000909117010E94A20620918A0130918B019B
:1009500040918C0150918D010E9486050E946A068B
:1009600060934E0170934F01809350019093510119
:1009700098B825E32A95F1F7000018B886B1807180
:1009800090E0EDB7FEB774960FB6F894FEBF0FBEB9
:10099000EDBF409734F086B1807190E040974CF401
:1009A0000FC01982188286B1807190E04097CCF315
:1009B000F2CF0881198186B1807190E04097CCF721
:1009C0000734F9E01F0798F023E630E030939101F7
:1009D0002093900189E090E090938F0180938E01A5
:1009E00024E338E0E8E8F0E0318320833EC020E0F3
:1009F00034E244E757E46091180170911901809145
:100A00001A0190911B010E94F8052B013C01B801CD
:100A100080E090E00E94A0069B01AC01C301B201FE
:100A20000E9457072B013C0160938A0170938B0150
:100A300080938C0190938D0120E030E040E251E4FE
:100A40000E94F8050E9471067093910160939001D5
:100A5000C301B2010E946A06CB016AE070E00E9405
:100A6000C40790938F0180938E01209114013091DF
:100A70001501409116015091170160918A01709102
:100A80008B0180918C0190918D010E94B7028FE1C2
:100A90009EE40197F1F700C00000F8CECF92DF92FC
:100AA000EF92FF92609114017091150180911601EF
:100AB000909117010F2EFAE0CF2ED12CE12CF12CC2
:100AC000F02DA70196010E94D80760935E017093F4
:100AD0005F018093600190936101609114017091B6
:100AE00015018091160190911701A70196010E94AE
:100AF000D80720935A0130935B0140935C015093D7
:100B00005D01FF90EF90DF90CF9008955058BB2784
:100B1000AA270E949E050C9418070E940A0738F025
:100B20000E94110720F039F49F3F19F426F40C9429
:100B300007070EF4E095E7FB0C940107E92F0E94EC
:100B4000290758F3BA17620773078407950720F03F
:100B500079F4A6F50C944B070EF4E0950B2EBA2F02
:100B6000A02D0B01B90190010C01CA01A0011124B3
:100B7000FF27591B99F0593F50F4503E68F11A165F
:100B8000F040A22F232F342F4427585FF3CF4695F0
:100B900037952795A795F0405395C9F77EF41F1612
:100BA000BA0B620B730B840BBAF09150A1F0FF0FDC
:100BB000BB1F661F771F881FC2F70EC0BA0F621FC8
:100BC000731F841F48F4879577956795B795F795B8
:100BD0009E3F08F0B0CF9395880F08F09927EE0F4D
:100BE0009795879508950E94DD0608F481E00895A1
:100BF0000E940C060C9418070E94110758F00E94DE
:100C00000A0740F029F45F3F29F00C9401075111C5
:100C10000C944C070C9407070E94290768F399234A
:100C2000B1F3552391F3951B550BBB27AA276217E8
:100C30007307840738F09F5F5F4F220F331F441FF5
:100C4000AA1FA9F335D00E2E3AF0E0E832D0915029
:100C50005040E695001CCAF72BD0FE2F29D0660F16
:100C6000771F881FBB1F261737074807AB07B0E859
:100C700009F0BB0B802DBF01FF2793585F4F3AF05F
:100C80009E3F510578F00C9401070C944C075F3F90
:100C9000E4F3983ED4F3869577956795B795F795E5
:100CA0009F5FC9F7880F911D9695879597F90895CD
:100CB000E1E0660F771F881FBB1F62177307840769
:100CC000BA0720F0621B730B840BBA0BEE1F88F778
:100CD000E09508950E9471066894B1110C944C0738
:100CE00008950E94310788F09F5798F0B92F9927EF
:100CF000B751B0F0E1F0660F771F881F991F1AF007
:100D0000BA95C9F714C0B13091F00E944B07B1E019
:100D100008950C944B07672F782F8827B85F39F018
:100D2000B93FCCF3869577956795B395D9F73EF49F
:100D300090958095709561957F4F8F4F9F4F089547
:100D4000E89409C097FB3EF4909580957095619565
:100D50007F4F8F4F9F4F9923A9F0F92F96E9BB271B
:100D60009395F695879577956795B795F111F8CF97
:100D7000FAF4BB0F11F460FF1BC06F5F7F4F8F4F02
:100D80009F4F16C0882311F096E911C0772321F0F8
:100D90009EE8872F762F05C0662371F096E8862F90
:100DA00070E060E02AF09A95660F771F881FDAF7E7
:100DB000880F9695879597F90895990F0008550F14
:100DC000AA0BE0E8FEEF16161706E807F907C0F0D1
:100DD00012161306E407F50798F0621B730B840BD9
:100DE000950B39F40A2661F0232B242B252B21F4B3
:100DF00008950A2609F4A140A6958FEF811D811D53
:100E0000089597F99F6780E870E060E008959FEF8C
:100E100080EC089500240A94161617061806090691
:100E2000089500240A941216130614060506089560
:100E3000092E0394000C11F4882352F0BB0F40F4E8
:100E4000BF2B11F460FF04C06F5F7F4F8F4F9F4F28
:100E5000089557FD9058440F551F59F05F3F71F0AA
:100E60004795880F97FB991F61F09F3F79F0879511
:100E70000895121613061406551FF2CF4695F1DF9A
:100E800008C0161617061806991FF1CF869571052A
:100E9000610508940895E894BB2766277727CB015E
:100EA00097F908950E94DD0608F48FEF08950E94D7
:100EB0006A070C9418070E940A0738F00E9411076D
:100EC00020F0952311F00C9401070C9407071124CE
:100ED0000C944C070E94290770F3959FC1F3950F5E
:100EE00050E0551F629FF001729FBB27F00DB11DAE
:100EF000639FAA27F00DB11DAA1F649F6627B00D3E
:100F0000A11D661F829F2227B00DA11D621F739F26
:100F1000B00DA11D621F839FA00D611D221F749F34
:100F20003327A00D611D231F849F600D211D822F7B
:100F3000762F6A2F11249F5750409AF0F1F08823A2
:100F40004AF0EE0FFF1FBB1F661F771F881F9150CF
:100F50005040A9F79E3F510580F00C9401070C9476
:100F60004C075F3FE4F3983ED4F3869577956795F9
:100F7000B795F795E7959F5FC1F7FE2B880F911DF9
:100F80009695879597F9089597FB072E16F4009488
:100F900007D077FD09D00E94F70707FC05D03EF483
:100FA000909581959F4F0895709561957F4F089515
:100FB000052E97FB1EF400940E94EF0757FD07D003
:100FC0000E940B0807FC03D04EF40C94EF075095D9
:100FD0004095309521953F4F4F4F5F4F0895909525
:100FE0008095709561957F4F8F4F9F4F0895AA1BF5
:100FF000BB1B51E107C0AA1FBB1FA617B70710F004
:10100000A61BB70B881F991F5A95A9F78095909535
:10101000BC01CD010895A1E21A2EAA1BBB1BFD0144
:101020000DC0AA1FBB1FEE1FFF1FA217B307E407C7
:10103000F50720F0A21BB30BE40BF50B661F771F1F
:10104000881F991F1A9469F76095709580959095FF
:101050009B01AC01BD01CF010895EE0FFF1F05906C
:10106000F491E02D0994AEE0B0E0E9E3F8E00C94EF
:10107000F40A0D891E8986E08C831A8309838FEF19
:101080009FE79E838D83AE01475E5F4F6F89788DAA
:10109000CE0101960E945508EF81F885E00FF11FFF
:1010A00010822E96E4E00C94100BABE0B0E0EBE580
:1010B000F8E00C94E60A6C017B018A01FC011782BE
:1010C0001682838181FFCCC1CE0101963C01F601DD
:1010D0009381F70193FD859193FF81917F0188238F
:1010E00009F4BAC1853239F493FD859193FF81915A
:1010F0007F01853229F4B60190E00E944C0AE7CFC7
:10110000912C212C312CFFE1F315D8F08B3279F0A2
:1011100038F4803279F08332A1F4232D20611DC090
:101120008D3261F0803369F4232D216016C0832D48
:101130008260382EE32DE4603E2E2AC0F32DF86045
:101140001DC037FC2DC020ED280F2A3040F08E3214
:10115000B9F436FC81C1232D2064322E19C036FE2D
:1011600006C08AE0989E200D1124922E11C0EAE05C
:101170002E9E200D1124222EF32DF0623F2E08C04A
:101180008C3621F4832D8068382E02C0883641F4D5
:10119000F70193FD859193FF81917F018111B3CF79
:1011A000982F9F7D9554933028F40C5F1F4F9FE339
:1011B00099830DC0833631F0833771F0833509F0A0
:1011C00059C021C0F801808189830E5F1F4F882498
:1011D0008394912C530113C02801F2E04F0E511C4F
:1011E000F801A080B18036FE03C0692D70E002C016
:1011F0006FEF7FEFC5010E94410A4C018201F32D80
:10120000FF773F2E16C0280122E0420E511CF80144
:10121000A080B18036FE03C0692D70E002C06FEF80
:101220007FEFC5010E94360A4C01F32DF0683F2E76
:10123000820133FC1BC0822D90E088169906B0F421
:10124000B60180E290E00E944C0A2A94F4CFF501A6
:1012500037FC859137FE81915F01B60190E00E94D5
:101260004C0A21102A9421E0821A910881149104D9
:1012700071F7E8C0843611F0893641F5F80137FE80
:1012800007C060817181828193810C5F1F4F08C00C
:1012900060817181072E000C880B990B0E5F1F4F28
:1012A000F32DFF763F2E97FF09C09095809570959E
:1012B00061957F4F8F4F9F4FF0683F2E2AE030E0BF
:1012C000A3010E94880A882E861845C0853731F40C
:1012D000232D2F7EB22E2AE030E025C0932D997F5A
:1012E000B92E8F36C1F018F4883579F0B5C0803743
:1012F00019F0883721F0B0C0E92FE061BE2EB4FEAE
:101300000DC0FB2DF460BF2E09C034FE0AC0292F8A
:101310002660B22E06C028E030E005C020E130E0B3
:1013200002C020E132E0F801B7FE07C060817181A0
:10133000828193810C5F1F4F06C06081718180E0C4
:1013400090E00E5F1F4FA3010E94880A882E861826
:10135000FB2DFF773F2E36FE0DC0232D2E7FA22EB4
:10136000891458F434FE0BC032FC09C0832D8E7EE4
:10137000A82E05C0B82CA32C03C0B82C01C0B92CD2
:10138000A4FE0FC0FE01E80DF11D8081803321F421
:101390009A2D997EA92E09C0A2FE06C0B394B394DB
:1013A00004C08A2D867809F0B394A3FC11C0A0FE76
:1013B00006C0B21488F4280C922C9B180EC0B214EC
:1013C00060F4B60180E290E00E944C0AB394F7CF3B
:1013D000B21418F42B1802C0982C212CA4FE10C0B3
:1013E000B60180E390E00E944C0AA2FE17C0A1FC67
:1013F00003C088E790E002C088E590E0B6010CC029
:101400008A2D867859F0A1FE02C08BE201C080E2ED
:10141000A7FC8DE2B60190E00E944C0A891438F4D2
:10142000B60180E390E00E944C0A9A94F7CF8A9428
:10143000F301E80DF11D8081B60190E00E944C0A95
:101440008110F5CF222009F442CEB60180E290E06F
:101450000E944C0A2A94F6CFF6018681978102C039
:101460008FEF9FEF2B96E2E10C94020BFC010590AD
:10147000615070400110D8F7809590958E0F9F1F96
:101480000895FC016150704001900110D8F78095DB
:1014900090958E0F9F1F08950F931F93CF93DF9307
:1014A000FB01238121FD03C08FEF9FEF2CC022FFA2
:1014B00016C046815781248135814217530744F471
:1014C000A081B1819D012F5F3F4F318320838C9399
:1014D000268137812F5F3F4F3783268314C08B01CE
:1014E000EC01FB010084F185E02D0995892BE1F6E3
:1014F000D80116968D919C911797019617969C93FB
:101500008E931697CE01DF91CF911F910F91089581
:10151000FA01AA27283051F1203181F1E8946F9324
:101520006E7F6E5F7F4F8F4F9F4FAF4FB1E03ED0CA
:10153000B4E03CD0670F781F891F9A1FA11D680F68
:10154000791F8A1F911DA11D6A0F711D811D911D9B
:10155000A11D20D009F468943F912AE0269F112410
:101560003019305D3193DEF6CF010895462F477074
:10157000405D4193B3E00FD0C9F7F6CF462F4F70CF
:10158000405D4A3318F0495D31FD4052419302D02D
:10159000A9F7EACFB4E0A6959795879577956795D3
:1015A000BA95C9F700976105710508959B01AC01D3
:1015B0000A2E06945795479537952795BA95C9F7FA
:1015C000620F731F841F951FA01D08952F923F92D5
:1015D0004F925F926F927F928F929F92AF92BF9243
:1015E000CF92DF92EF92FF920F931F93CF93DF93EF
:1015F000CDB7DEB7CA1BDB0B0FB6F894DEBF0FBE4C
:10160000CDBF09942A88398848885F846E847D8498
:101610008C849B84AA84B984C884DF80EE80FD809A
:101620000C811B81AA81B981CE0FD11D0FB6F89410
:0E163000DEBF0FBECDBFED010895F894FFCFD1
:10163E0001000000004003450080BB440000A042B2
:10164E0000005C4364000000C0DF0348544F3A20A2
:10165E0020252E32642E256420696E2053434C00C3
:10166E0041543A2020252E32642E256420696E20A6
:02167E0000006A
:00000001FF
